:100000000C9462000C948A000C948A000C948A0070
:100010000C948A000C948A000C948A000C9435038A
:100020000C948A000C948A000C948A000C948A0028
:100030000C948A000C948A000C948A000C948A0018
:100040000C9493020C948A000C9403030C94DD022C
:100050000C948A000C948A000C948A000C948A00F8
:100060000C948A000C948A000000000024002700F1
:100070002A000000000023002600290000000000E4
:10008000250028002B0004040404040404040202D4
:100090000202020203030303030301020408102007
:1000A0004080010204081020010204081020000012
:1000B0000008000201000003040700000000000027
:1000C0000000C50411241FBECFEFD8E0DEBFCDBFB6
:1000D00011E0A0E0B1E0E8E3FAE002C005900D9283
:1000E000A833B107D9F721E0A8E3B1E001C01D9220
:1000F000AF3DB207E1F710E0C2E6D0E004C02197BF
:10010000FE010E941405C136D107C9F70E94AE0353
:100110000C941A050C940000E5EBF0E02491E1EA60
:10012000F0E09491EDE8F0E0E491EE23C9F02223B1
:1001300039F0233001F1A8F4213019F1223029F1EE
:10014000F0E0EE0FFF1FE458FF4FA591B4912FB7D9
:10015000F894EC91811126C090959E239C932FBF1B
:1001600008952730A9F02830C9F0243049F72091AC
:1001700080002F7D03C0209180002F772093800086
:10018000DFCF24B52F7724BDDBCF24B52F7DFBCF68
:100190002091B0002F772093B000D2CF2091B000F3
:1001A0002F7DF9CF9E2BDACF80E00E948C0083E078
:1001B00090E00197F1F781E00E948C0083E290E0EB
:1001C0000197F1F780E00C948C00AF92BF92CF9230
:1001D000DF92EF92FF920F931F93CF93DF936C0107
:1001E0007B018B01040F151FEB015E01AE18BF08E8
:1001F000C017D10759F06991D601ED91FC9101909A
:10020000F081E02DC6010995892B79F7C501DF91B1
:10021000CF911F910F91FF90EF90DF90CF90BF9003
:10022000AF900895FC01538D448D252F30E0842F2D
:1002300090E0821B930B541710F0CF96089501970E
:100240000895FC01918D828D981761F0A28DAE0FFB
:10025000BF2FB11D5D968C91928D9F5F9F73928F82
:1002600090E008958FEF9FEF0895FC01918D828DAE
:10027000981731F0828DE80FF11D858D90E008957B
:100280008FEF9FEF0895FC01918D228D892F90E0D3
:10029000805C9F4F821B91098F739927089582E498
:1002A00091E00E94430121E0892B09F420E0822F94
:1002B000089580E090E0892B29F00E944F01811180
:1002C0000C9400000895FC01A48DA80FB92FB11D56
:1002D000A35ABF4F2C91848D90E001968F7399277C
:1002E000848FA689B7892C93A089B1898C9183705A
:1002F00080648C93938D848D981306C00288F38953
:10030000E02D80818F7D80830895EF92FF920F937F
:100310001F93CF93DF93EC0181E0888F9B8D8C8DB1
:1003200098131AC0E889F989808185FF15C09FB7A5
:10033000F894EE89FF896083E889F9898081837068
:10034000806480839FBF81E090E0DF91CF911F9117
:100350000F91FF90EF900895F62E0B8D10E00F5F38
:100360001F4F0F731127E02E8C8D8E110CC00FB60E
:1003700007FCFACFE889F989808185FFF5CFCE01A6
:100380000E946301F1CFEB8DEC0FFD2FF11DE35ABD
:10039000FF4FF0829FB7F8940B8FEA89FB89808129
:1003A0008062CFCFCF93DF93EC01888D8823B9F0A3
:1003B000AA89BB89E889F9898C9185FD03C0808170
:1003C00086FD0DC00FB607FCF7CF8C9185FFF2CFED
:1003D000808185FFEDCFCE010E946301E9CFDF91DF
:1003E000CF910895FC0101900020E9F73197AF010A
:1003F000481B590BBC0182E491E00C94E5008F92FC
:100400009F92AF92BF920F931F93CF93DF93CDB77D
:10041000DEB7A1970FB6F894DEBF0FBECDBF19A20D
:10042000423008F44AE08E010F5D1F4F842E912C5C
:10043000B12CA12CA50194010E94F204E62FB90170
:10044000CA01EA30F4F4E05DD801EE938D01232B6C
:10045000242B252B79F790E080E0109719F0CD013F
:100460000E94F201A1960FB6F894DEBF0FBECDBF79
:10047000DF91CF911F910F91BF90AF909F908F9080
:100480000895E95CE1CFCF92DF92EF92FF92CF9394
:10049000DF936B017C01F7FE1FC06DE282E491E007
:1004A0000E948501EC0166277727CB016C197D0935
:1004B0008E099F094AE00E94FF01C80FD91F82E1FF
:1004C00091E00E94F2018C0F9D1FDF91CF91FF9070
:1004D000EF90DF90CF9008954AE00E94FF01EC0179
:1004E000EECF0F931F938B019C01E2EAF0E0649141
:1004F000EEE8F0E0E491F0E0EE0FFF1FEE58FF4F62
:10050000A591B491462FCD010E9469036115710533
:100510008105910529F06F5F7F4F8F4F9F4F9F702F
:100520001F910F9108951F920F920FB60F921124F1
:100530002F933F938F939F93AF93BF9380913E01EF
:1005400090913F01A0914001B091410130913D0156
:1005500023E0230F2D3758F50196A11DB11D2093DF
:100560003D0180933E0190933F01A0934001B093E1
:1005700041018091390190913A01A0913B01B091E4
:100580003C010196A11DB11D8093390190933A0160
:10059000A0933B01B0933C01BF91AF919F918F918C
:1005A0003F912F910F900FBE0F901F90189526E846
:1005B000230F0296A11DB11DD2CF1F920F920FB62D
:1005C0000F9211242F933F934F935F936F937F93D9
:1005D0008F939F93AF93BF93EF93FF9382E491E048
:1005E0000E946301FF91EF91BF91AF919F918F9115
:1005F0007F916F915F914F913F912F910F900FBE1F
:100600000F901F9018951F920F920FB60F92112402
:100610002F938F939F93EF93FF93E0915201F0916B
:1006200053018081E0915801F091590182FD1BC076
:10063000908180915B018F5F8F7320915C018217A5
:1006400041F0E0915B01F0E0EE5BFE4F958F80930F
:100650005B01FF91EF919F918F912F910F900FBEB2
:100660000F901F9018958081F4CF1F920F920FB6B4
:100670000F9211242F933F934F935F936F937F9328
:100680008F939F93AF93BF93EF93FF93109270005C
:1006900080913801882361F01092380181E00E9436
:1006A0008C0083E290E00197F1F780E00E948C00DB
:1006B000FF91EF91BF91AF919F918F917F916F913A
:1006C0005F914F913F912F910F900FBE0F901F9010
:1006D0001895CF92DF92EF92FF920F931F93E82F1E
:1006E000F92F05C0015011092109310961F19081EB
:1006F00096239417B9F305C0015011092109310956
:1007000011F1908196239413F7CFC12CD12CE12CB9
:10071000F12C0AC08FEFC81AD80AE80AF80A0C159B
:100720001D052E053F0579F080818623841791F3FE
:100730006C2D7D2D8E2D9F2D1F910F91FF90EF9091
:10074000DF90CF90089560E070E080E090E01F912E
:100750000F91FF90EF90DF90CF900895789484B53B
:10076000826084BD84B5816084BD85B5826085BDAD
:1007700085B5816085BD80916E00816080936E003B
:10078000109281008091810082608093810080912D
:1007900081008160809381008091800081608093DE
:1007A00080008091B10084608093B1008091B0009E
:1007B00081608093B00080917A00846080937A0099
:1007C00080917A00826080937A0080917A008160C3
:1007D00080937A0080917A00806880937A001092EA
:1007E000C100E0915201F091530182E08083E091D9
:1007F0004E01F0914F011082E0915001F0915101B2
:1008000080E1808310925A01E0915601F0915701E6
:1008100086E08083E0915401F091550180818061F0
:100820008083E0915401F09155018081886080833C
:10083000E0915401F0915501808180688083E091BE
:100840005401F091550180818F7D8083E1EAF0E0D1
:100850002491EDE8F0E08491882399F090E0880FEE
:10086000991FFC01E859FF4FA591B491FC01E45890
:10087000FF4F859194918FB7F894EC91E22BEC9314
:100880008FBFE2EAF0E02491EEE8F0E08491882363
:10089000C1F090E0880F991FFC01E859FF4FC59106
:1008A000D491FC01E458FF4FA591B4919FB7F894FF
:1008B0008881E22FE0958E2388838C91E823EC9346
:1008C0009FBF5F9A88E28A95F1F75F9868E873E1C5
:1008D00080E090E00E9471026B017C0185E191E073
:1008E0000E94F201C701B6010E9443020E94D40097
:1008F00060E573EC80E090E00E9471026B017C0186
:100900008CE191E00E94F201C701B6010E9443020E
:1009100082E08093B00094E09093B1009AEF9093BE
:10092000B3001092B20091E0909338018093700070
:100930000E94D40060E573EC80E090E00E947102B8
:100940006B017C0185E291E00E94F201C701B601D2
:100950000E94430280E391E00E94F201609138011D
:1009600070E090E080E04AE00E94FF0182E191E0C7
:100970000E94F201C0E0D0E02097F1F30E944F0105
:100980008823D1F30E940000F7CFE2E4F1E0138264
:10099000128288EE93E0A0E0B0E084839583A68382
:1009A000B78384E091E09183808385EC90E0958724
:1009B000848784EC90E09787868780EC90E0918B29
:1009C000808B81EC90E0938B828B82EC90E0958B16
:1009D000848B86EC90E0978B868B118E128E138E13
:1009E000148E0895A1E21A2EAA1BBB1BFD010DC097
:1009F000AA1FBB1FEE1FFF1FA217B307E407F507CF
:100A000020F0A21BB30BE40BF50B661F771F881FAA
:100A1000991F1A9469F760957095809590959B0140
:100A2000AC01BD01CF010895EE0FFF1F0590F491B9
:080A3000E02D0994F894FFCFBA
:100A3800000000008501E5001201D20143012101F7
:100A480035010D0A0073686F72742C0074696D6546
:100A58006F75742C007265747269676765722C0013
:080A680065787472612C000036
:00000001FF
