:100000000C945D000C9485000C9485000C94850084
:100010000C9485000C9485000C9485000C9485004C
:100020000C9485000C9485000C9485000C9485003C
:100030000C9485000C9485000C9485000C9485002C
:100040000C9495020C9485000C9405030C94DF022B
:100050000C9485000C9485000C9485000C9485000C
:100060000C9485000C94850000000008000201003B
:100070000003040700000000000000000000000072
:10008000250028002B0000000000240027002A0083
:10009000040404040404040402020202020203032E
:1000A0000303030301020408102040800102040836
:1000B0001020010204081020C70411241FBECFEF36
:1000C000D8E0DEBFCDBF11E0A0E0B1E0ECE3FAE0A4
:1000D00002C005900D92AE33B107D9F721E0AEE32F
:1000E000B1E001C01D92A43EB207E1F710E0CDE5FA
:1000F000D0E004C02197FE010E941605CC35D1073F
:10010000C9F70E9437030C941C050C940000209141
:10011000000190E4299F900111248E50822B80933E
:100120007C0080917A00806480937A0080917A00CC
:1001300086FDFCCF809178009091790008953FB7BB
:10014000F8948091430190914401A0914501B091B0
:10015000460126B5A89B05C02F3F19F00196A11DA9
:10016000B11D3FBFBA2FA92F982F8827BC01CD0101
:10017000620F711D811D911D42E0660F771F881F60
:10018000991F4A95D1F708958F929F92AF92BF928F
:10019000CF92DF92EF92FF924B015C010E949F0091
:1001A0006B017C010E949F006C197D098E099F09DB
:1001B000683E734081059105A8F321E0821A9108F9
:1001C000A108B10888EEC80E83E0D81EE11CF11C1E
:1001D00081149104A104B10429F7FF90EF90DF90FE
:1001E000CF90BF90AF909F908F900895AF92BF92A5
:1001F000CF92DF92EF92FF920F931F93CF93DF93F3
:100200006C017B018B01040F151FEB015E01AE1821
:10021000BF08C017D10759F06991D601ED91FC9143
:100220000190F081E02DC6010995892B79F7C50170
:10023000DF91CF911F910F91FF90EF90DF90CF90C2
:10024000BF90AF900895FC01538D448D252F30E071
:10025000842F90E0821B930B541710F0CF960895D3
:1002600001970895FC01918D828D981761F0A28D00
:10027000AE0FBF2FB11D5D968C91928D9F5F9F73C6
:10028000928F90E008958FEF9FEF0895FC01918D7C
:10029000828D981731F0828DE80FF11D858D90E0E9
:1002A00008958FEF9FEF0895FC01918D228D892F86
:1002B00090E0805C9F4F821B91098F73992708956E
:1002C00087E491E00E94540121E0892B09F420E0A9
:1002D000822F089580E090E0892B29F00E94600130
:1002E00081110C9400000895FC01A48DA80FB92F72
:1002F000B11DA35ABF4F2C91848D90E001968F734E
:100300009927848FA689B7892C93A089B1898C916C
:10031000837080648C93938D848D981306C00288BB
:10032000F389E02D80818F7D80830895EF92FF9285
:100330000F931F93CF93DF93EC0181E0888F9B8D08
:100340008C8D98131AC0E889F989808185FF15C0C2
:100350009FB7F894EE89FF896083E889F9898081E5
:100360008370806480839FBF81E090E0DF91CF91B4
:100370001F910F91FF90EF900895F62E0B8D10E0D6
:100380000F5F1F4F0F731127E02E8C8D8E110CC045
:100390000FB607FCFACFE889F989808185FFF5CF90
:1003A000CE010E947401F1CFEB8DEC0FFD2FF11DFA
:1003B000E35AFF4FF0829FB7F8940B8FEA89FB89CD
:1003C00080818062CFCFCF93DF93EC01888D88232B
:1003D000B9F0AA89BB89E889F9898C9185FD03C0A8
:1003E000808186FD0DC00FB607FCF7CF8C9185FF8D
:1003F000F2CF808185FFEDCFCE010E947401E9CF5D
:10040000DF91CF910895FC0101900020E9F7319729
:10041000AF01481B590BBC0187E491E00C94F60036
:100420008F929F92AF92BF92CF92DF92EF92FF9204
:100430000F931F93CF93DF93CDB7DEB7A1970FB67E
:10044000F894DEBF0FBECDBF6C01990FEE08FF0818
:10045000F7FE47C06DE287E491E00E9496018C01AF
:1004600022273327A9012C193D094E095F0919A23A
:10047000CE0181967C019AE0892E912CA12CB12C81
:10048000CA01B901A50194010E94F404605DF7015D
:1004900062937F01211531054105510589F790E0EF
:1004A00080E0309719F0CF010E940302080F191F56
:1004B00083E191E00E940302800F911FA1960FB685
:1004C000F894DEBF0FBECDBFDF91CF911F910F918A
:1004D000FF90EF90DF90CF90BF90AF909F908F9064
:1004E0000895A701960119A28E010F5D1F4F8AE0A2
:1004F000C82ED12CE12CF12CCA01B901A70196011B
:100500000E94F404605DF80162938F0121153105AA
:100510004105510589F7309729F0CF010E94030268
:100520008C01C6CF10E000E0C3CF1F920F920FB630
:100530000F9211242F933F938F939F93AF93BF9369
:1005400080913F0190914001A0914101B091420101
:1005500030913E0123E0230F2D3758F50196A11D60
:10056000B11D20933E0180933F0190934001A093E1
:100570004101B09342018091430190914401A091C7
:100580004501B09146010196A11DB11D8093430123
:1005900090934401A0934501B0934601BF91AF9160
:1005A0009F918F913F912F910F900FBE0F901F90B1
:1005B000189526E8230F0296A11DB11DD2CF1F92D8
:1005C0000F920FB60F9211242F933F934F935F9387
:1005D0006F937F938F939F93AF93BF93EF93FF930B
:1005E00087E491E00E947401FF91EF91BF91AF9178
:1005F0009F918F917F916F915F914F913F912F913B
:100600000F900FBE0F901F9018951F920F920FB66C
:100610000F9211242F938F939F93EF93FF93E09169
:100620005701F09158018081E0915D01F0915E01E8
:1006300082FD1BC09081809160018F5F8F7320913C
:100640006101821741F0E0916001F0E0E95BFE4F4B
:10065000958F80936001FF91EF919F918F912F91E2
:100660000F900FBE0F901F9018958081F4CF789453
:1006700084B5826084BD84B5816084BD85B58260A7
:1006800085BD85B5816085BD80916E008160809358
:100690006E001092810080918100826080938100C1
:1006A00080918100816080938100809180008160D1
:1006B000809380008091B10084608093B10080912C
:1006C000B00081608093B00080917A008460809354
:1006D0007A0080917A00826080937A0080917A001B
:1006E000816080937A0080917A00806880937A009C
:1006F0001092C100E0915701F091580182E080838F
:10070000E0915301F09154011082E0915501F09174
:10071000560180E1808310925F01E0915B01F091CE
:100720005C0186E08083E0915901F0915A0180815B
:1007300080618083E0915901F0915A018081886045
:100740008083E0915901F0915A0180818068808313
:10075000E0915901F0915A0180818F7D808344EBB3
:1007600050E0FA01649180EA90E0FC012491222398
:1007700099F030E0220F331FF901EA57FF4FA5919E
:10078000B491F901E458FF4F259134912FB7F894B3
:100790003C91632B6C932FBFE8E7F0E02491FA01C2
:1007A0004491FC0194919923D9F0222359F02330EC
:1007B00009F4D6C008F0C9C0213009F4D7C02230EE
:1007C00009F4D8C0E92FF0E0EE0FFF1FE458FF4F07
:1007D000A591B4918FB7F8949C91492B4C938FBFFE
:1007E000E5EBF0E02491E1EAF0E084918823C1F0A8
:1007F00090E0880F991FFC01EA57FF4FC591D491F3
:10080000FC01E458FF4FA591B4919FB7F89438814B
:10081000822F809583238883EC91E22BEC939FBFFA
:100820006AE070E080E090E00E94C4008EE00E94E8
:1008300087005C018FE00E9487006C0180E10E94CC
:1008400087007C0181E10E9487008C018EE4809307
:100850007C0062E070E080E090E00E94C400809143
:100860007A00806480937A0080917A0086FDFCCFC4
:100870008090780080917900982E8FE480937C009E
:1008800062E070E080E090E00E94C40080917A0015
:10089000806480937A0080917A0086FDFCCF60901E
:1008A000780080917900782E83E08093000162E0E7
:1008B00070E080E090E00E94C4008FE00E9487001A
:1008C000EC0186E191E00E940302C5010E94100242
:1008D0008BE191E00E940302C6010E9410028FE1A9
:1008E00091E00E940302C7010E94100285E291E09C
:1008F0000E940302C8010E9410028BE291E00E9454
:100900000302C4010E9410028FE291E00E940302E0
:10091000C3010E94100282E391E00E940302CE0113
:100920000E94100288E391E00E94030283E191E0BB
:100930000E940302C0E0D0E02097F1F30E94600122
:100940008823D1F30E940000F7CF2730B1F0283080
:10095000D1F0243009F036CF809180008F7D03C024
:10096000809180008F77809380002CCF84B58F7723
:1009700084BD28CF84B58F7DFBCF8091B0008F7769
:100980008093B0001FCF8091B0008F7DF9CFE7E456
:10099000F1E01382128288EE93E0A0E0B0E084835D
:1009A0009583A683B78385E091E09183808385EC6E
:1009B00090E09587848784EC90E09787868780EC29
:1009C00090E0918B808B81EC90E0938B828B82EC1A
:1009D00090E0958B848B86EC90E0978B868B118EC4
:1009E000128E138E148E0895A1E21A2EAA1BBB1B21
:1009F000FD010DC0AA1FBB1FEE1FFF1FA217B307EB
:100A0000E407F50720F0A21BB30BE40BF50B661F00
:100A1000771F881F991F1A9469F7609570958095C4
:100A200090959B01AC01BD01CF010895EE0FFF1F12
:0C0A30000590F491E02D0994F894FFCF9C
:100A3C0001000000009601F6002301E3015401328D
:100A4C000146010D0A00676E642C0076352C006897
:100A5C006967682C0070756C6C2C0062672C007ACE
:0E0A6C002C00697265662C00646F6E650000D8
:00000001FF
