:100000000C945D000C9485000C9485000C94850084
:100010000C9485000C9485000C9485000C9485004C
:100020000C9485000C9485000C9485000C9430038E
:100030000C9485000C9485000C9485000C9485002C
:100040000C948E020C9485000C94FE020C94D80241
:100050000C9485000C9485000C9485000C9485000C
:100060000C9485000C9485000000000024002700FB
:100070002A0000000000250028002B0004040404CE
:100080000404040402020202020203030303030342
:10009000010204081020408001020408102001021F
:1000A00004081020000000080002010000030407FB
:1000B0000000000000000000EC0311241FBECFEF81
:1000C000D8E0DEBFCDBF11E0A0E0B1E0E8EFFCE09A
:1000D00002C005900D92AC31B107D9F721E0ACE137
:1000E000B1E001C01D92A33FB207E1F710E0CDE5FA
:1000F000D0E004C02197FE010E947406CC35D107E0
:10010000C9F70E9449040C947A060C940000CF921F
:10011000DF92EF92FF92DC01A03282E0B807D4F5C3
:10012000A53BB10514F0A4EBB0E04091F10128E843
:1001300030E0241B310947FD3395220F331F220F76
:10014000331F6901330FEE08FF084091F20128E5E3
:1001500032E0241B310947FD3395220F331F220F54
:10016000331F032E000C440B550B2C193D094E096F
:100170005F09B7FF02C0B0E0A0E00E942F0624EBA9
:1001800030E040E050E00E940506C20ED31EE41E9F
:10019000F51ED601E091F001EC3080F52091F101DF
:1001A00088E890E0821B910927FD9395880F991F9D
:1001B000880F991FA817B90784F02091F20188E5EC
:1001C00092E0821B910927FD9395880F991F880F54
:1001D000991FA817B9070CF4CD010297880F991F32
:1001E0004FB7F8942E2F30E0F901EE0FFF1FE20F0A
:1001F000F31FE553FE4F928381834FBFFF90EF9033
:10020000DF90CF90089590E0FC01EC55FF4F2491D2
:10021000FC01E057FF4F3491FC01E458FF4FE4919B
:10022000EE23C9F0222339F0233001F1A8F4213064
:1002300019F1223029F1F0E0EE0FFF1FEE58FF4FC9
:10024000A591B4918FB7F894EC91611126C03095C7
:100250003E233C938FBF08952730A9F02830C9F082
:10026000243049F7809180008F7D03C08091800009
:100270008F7780938000DFCF84B58F7784BDDBCF0D
:1002800084B58F7DFBCF8091B0008F778093B000D5
:10029000D2CF8091B0008F7DF9CF3E2BDACF3FB720
:1002A000F89480912A0190912B01A0912C01B0919A
:1002B0002D0126B5A89B05C02F3F19F00196A11D61
:1002C000B11D3FBFBA2FA92F982F8827BC01CD01A0
:1002D000620F711D811D911D42E0660F771F881FFF
:1002E000991F4A95D1F70895AF92BF92CF92DF92AE
:1002F000EF92FF920F931F93CF93DF936C017B01DB
:100300008B01040F151FEB015E01AE18BF08C0176B
:10031000D10759F06991D601ED91FC910190F081DE
:10032000E02DC6010995892B79F7C501DF91CF91A1
:100330001F910F91FF90EF90DF90CF90BF90AF9003
:100340000895FC01538D448D252F30E0842F90E0DB
:10035000821B930B541710F0CF96089501970895C0
:10036000FC01918D828D981761F0A28DAE0FBF2F89
:10037000B11D5D968C91928D9F5F9F73928F90E0DF
:1003800008958FEF9FEF0895FC01918D828D98174E
:1003900031F0828DE80FF11D858D90E008958FEF8B
:1003A0009FEF0895FC01918D228D892F90E0805C54
:1003B0009F4F821B91098F73992708958EE291E0D8
:1003C0000E94D20121E0892B09F420E0822F0895B8
:1003D00080E090E0892B29F00E94DE0181110C94CD
:1003E00000000895FC01A48DA80FB92FB11DA35AD8
:1003F000BF4F2C91848D90E001968F739927848F45
:10040000A689B7892C93A089B1898C918370806467
:100410008C93938D848D981306C00288F389E02D08
:1004200080818F7D80830895EF92FF920F931F93B9
:10043000CF93DF93EC0181E0888F9B8D8C8D981397
:100440001AC0E889F989808185FF15C09FB7F894A3
:10045000EE89FF896083E889F989808183708064EF
:1004600080839FBF81E090E0DF91CF911F910F913A
:10047000FF90EF900895F62E0B8D10E00F5F1F4F49
:100480000F731127E02E8C8D8E110CC00FB607FC58
:10049000FACFE889F989808185FFF5CFCE010E94E6
:1004A000F201F1CFEB8DEC0FFD2FF11DE35AFF4F61
:1004B000F0829FB7F8940B8FEA89FB898081806274
:1004C000CFCFCF93DF93EC01888D8823B9F0AA8931
:1004D000BB89E889F9898C9185FD03C0808186FDFF
:1004E0000DC00FB607FCF7CF8C9185FFF2CF80814E
:1004F00085FFEDCFCE010E94F201E9CFDF91CF91D0
:100500000895FC0101900020E9F73197AF01481BE5
:10051000590BBC018EE291E00C9474011F920F9272
:100520000FB60F9211242F933F938F939F93AF9306
:10053000BF938091260190912701A0912801B0914D
:1005400029013091250123E0230F2D3758F501961D
:10055000A11DB11D209325018093260190932701B1
:10056000A0932801B093290180912A0190912B0139
:10057000A0912C01B0912D010196A11DB11D809378
:100580002A0190932B01A0932C01B0932D01BF91D0
:10059000AF919F918F913F912F910F900FBE0F9030
:1005A0001F90189526E8230F0296A11DB11DD2CFEA
:1005B0001F920F920FB60F9211242F933F934F93D8
:1005C0005F936F937F938F939F93AF93BF93EF93BB
:1005D000FF938EE291E00E94F201FF91EF91BF91B3
:1005E000AF919F918F917F916F915F914F913F91CB
:1005F0002F910F900FBE0F901F9018951F920F9282
:100600000FB60F9211242F938F939F93EF93FF9325
:10061000E0913E01F0913F018081E0914401F09131
:10062000450182FD1BC09081809147018F5F8F73D0
:1006300020914801821741F0E0914701F0E0E25D2E
:10064000FE4F958F80934701FF91EF919F918F917E
:100650002F910F900FBE0F901F9018958081F4CFAF
:100660001F920F920FB60F9211242F933F934F9327
:100670005F936F937F938F939F93AF93BF93CF932A
:10068000DF93EF93FF9380911C01C091EF01D0E0C5
:1006900087FF24C0109285001092840080911C0175
:1006A0008F5F80931C0180911C01082E000C990B18
:1006B0008C179D0724F480911C018C30C4F180912B
:1006C000840090918500049680349C4908F47AC097
:1006D0008091840090918500049676C080911C01E1
:1006E000082E000C990B8C179D07C4F6E0911C0195
:1006F0008E2FEE0F990BFC01EE0FFF1FE80FF91F75
:10070000E553FE4F808186FFC9CFE0911C018E2FFB
:10071000EE0F990BFC01EE0FFF1FE80FF91FE553D9
:10072000FE4F808160E08F730E940301B7CF20915C
:10073000840030918500E0911C018E2FEE0F990B03
:10074000FC01EE0FFF1FE80FF91FE553FE4F8181FB
:100750009281820F931F9093890080938800E0918B
:100760001C018E2FEE0F990BFC01EE0FFF1FE80FFF
:10077000F91FE553FE4F808186FF11C0E0911C01F7
:100780008E2FEE0F990BFC01EE0FFF1FE80FF91FE4
:10079000E553FE4F808161E08F730E940301FF915A
:1007A000EF91DF91CF91BF91AF919F918F917F9109
:1007B0006F915F914F913F912F910F900FBE0F90CE
:1007C0001F90189580E49CE990938900809388009D
:1007D0008FEF80931C01E3CF109231011092300112
:1007E00088EE93E0A0E0B0E0809332019093330173
:1007F000A0933401B093350186E091E090932F01EE
:1008000080932E0185EC90E090933B0180933A0118
:1008100084EC90E090933D0180933C0180EC90E06B
:1008200090933F0180933E0181EC90E090934101D1
:100830008093400182EC90E09093430180934201C9
:1008400086EC90E09093450180934401109247011B
:10085000109248011092490110924A018091EF01D3
:100860008C3098F491E0980F9093EF018093F00111
:1008700090E0FC01EE0FFF1FE80FF91FE553FE4F5C
:1008800088EB9BE09283818308958FEF8093F00142
:100890000895CF93DF93CDB7DEB7A1970FB6F89445
:1008A000DEBF0FBECDBF789484B5826084BD84B5B1
:1008B000816084BD85B5826085BD85B5816085BD5B
:1008C00080916E00816080936E0010928100809113
:1008D000810082608093810080918100816080939B
:1008E0008100809180008160809380008091B100C0
:1008F00084608093B1008091B00081608093B000EB
:1009000080917A00846080937A0080917A0082607E
:1009100080937A0080917A00816080937A00809140
:100920007A00806880937A001092C100E0913E01C5
:10093000F0913F0182E08083E0913A01F0913B0128
:100940001082E0913C01F0913D0180E180831092A2
:100950004601E0914201F091430186E08083E091FD
:100960004001F0914101808180618083E0914001EC
:10097000F0914101808188608083E0914001F09195
:100980004101808180688083E0914001F0914101C4
:1009900080818F7D80838091F0018C3008F068C069
:1009A000E9E9F0E02491E5E8F0E08491882399F00A
:1009B00090E0880F991FFC01E859FF4FA591B49171
:1009C000FC01EE58FF4F859194918FB7F894EC910C
:1009D000E22BEC938FBF8091F001282F30E0F901DA
:1009E000EE0FFF1FE20FF31FE553FE4F9081907C47
:1009F000996090831092F1011092F2012CE0622F25
:100A00000E946806829FB001112430E020E0AB0113
:100A1000420F531FFA01EE0FFF1FE40FF51FE553BE
:100A2000FE4F908196FD16C02F5F3F4F2C30310551
:100A300071F781110FC01092800082E080938100D5
:100A40001092850010928400B19A80916F008260AC
:100A500080936F00E091F0018E2F90E0FC01EE0F8B
:100A6000FF1FE80FF91FE553FE4F808180648083EC
:100A700080910001909101010E94870020E0222EC8
:100A800020E0322E8FB7F894C0902601D090270135
:100A9000E0902801F09029018FBF80912101909171
:100AA0002201A0912301B0912401A7019601281BE6
:100AB000390B4A0B5B0BDA01C90184369105A1059C
:100AC000B10508F468C0C0922101D0922201E092E1
:100AD0002301F092240184E191E00E9481023EE42E
:100AE00030937C000E944F014B015C0192E0492E43
:100AF000512C612C712C0E944F01681979098A09C7
:100B00009B09683E734081059105A8F348EE840E69
:100B100043E0941EA11CB11C4A944528462847284E
:100B200029F0412C512C32014394E5CF80917A0079
:100B3000806480937A0080917A0086FDFCCF2091BA
:100B400078008091790030E050E040E0382B64EB91
:100B50007BE281E190E00E94050619A28E010F5D03
:100B60001F4FCA01B9012AE030E040E050E00E9486
:100B70003706605DF80162938F012115310541054B
:100B8000510579F7309719F0CF010E94810289E170
:100B900091E00E94810280911D0190911E01A0911F
:100BA0001F01B0912001A7019601281B390B4A0BA8
:100BB0005B0BDA01C901883E9340A105B105B0F095
:100BC000C0921D01D0921E01E0921F01F0922001FF
:100BD00080910001909101010A97A1F08AE090E0D4
:100BE00090930101809300010E9487002114310439
:100BF00009F448CF0E94DE01882309F443CF0E9404
:100C0000000040CF8AEA90E0EBCF052E97FB1EF460
:100C100000940E941C0657FD07D00E94370607FC6F
:100C200003D04EF40C941C065095409530952195B8
:100C30003F4F4F4F5F4F0895909580957095619508
:100C40007F4F8F4F9F4F08950E945906A59F900D8B
:100C5000B49F900DA49F800D911D11240895B7FF9E
:100C60000C9424060E942406821B930B0895A1E293
:100C70001A2EAA1BBB1BFD010DC0AA1FBB1FEE1F16
:100C8000FF1FA217B307E407F50720F0A21BB30B61
:100C9000E40BF50B661F771F881F991F1A9469F7DD
:100CA00060957095809590959B01AC01BD01CF0139
:100CB0000895A29FB001B39FC001A39F700D811D35
:100CC0001124911DB29F700D811D1124911D089555
:100CD000991B79E004C0991F961708F0961B881F8E
:100CE0007A95C9F780950895EE0FFF1F0590F4914E
:080CF000E02D0994F894FFCFF8
:100CF8000A000000000014027401A1016102D2017F
:0C0D0800B001C4017663632C000D0A00EA
:00000001FF
