:100000000C94CE000C94F6000C94F6000C94F600C0
:100010000C94F6000C94F6000C94F6000C94F60088
:100020000C94F6000C94F6000C94E0040C944F052C
:100030000C94F6000C94F6000C94F6000C94F60068
:100040000C94F6000C94F6000C94F6000C94F60058
:100050000C94F6000C94F6000C94F6000C948107B6
:100060000C94F6000C94F1070C94CB070C94F6005A
:100070000C94F6000C94F6000C94F6000C94F60028
:100080000C94F6000C94F6000C94F6000C94F60018
:100090000C94F6000C94F6000C94F6000C94F60008
:1000A0000C94F6000C94F6000C94F600000000008E
:1000B000240027002A002D003000080B0002020255
:1000C00000000904000001020200000524001001E4
:1000D0000524010101042402060524060001070588
:1000E000810310004009040100020A000000070516
:1000F00002024000000705830240000004030904D7
:1001000012010002EF02014041233680000101028A
:10011000030141726475696E6F204C4C430041725B
:100120006475696E6F204C656F6E6172646F00005C
:10013000000000250028002B002E003100040404DC
:10014000040403040502020202040302020202067E
:10015000060606060604040202020404040802015C
:100160001040804010204080408008020401804000
:1001700020100201108010204040200000000200EA
:10018000090F0000030401000C0000000000000043
:1001900000000000000000000000230811241FBE22
:1001A000CFEFDAE0DEBFCDBF11E0A0E0B1E0E6EFD7
:1001B000F2E102C005900D92A034B107D9F722E018
:1001C000A0E4B1E001C01D92AC34B207E1F710E049
:1001D000CEECD0E004C02197FE010E947309CD3C13
:1001E000D107C9F70E9460080C9479090C940000AB
:1001F000ECE8F1E02491EDE6F1E03491EEE4F1E099
:100200009491992309F430C02223E9F021502F3032
:10021000D0F4E22FF0E0E15FFE4F0C9473093D0152
:1002200041011E013501390123012301230144014C
:100230004A014E015201580123015C0120918000C6
:100240002F7720938000E92FF0E0EE0FFF1FE15D94
:10025000FE4FA591B4919FB7F894EC91811132C0F3
:1002600030953E233C939FBF0895209180002F7DC1
:10027000E8CF20918000277FE4CF24B52F7724BDDD
:10028000E2CF24B52F7DFBCF209190002F772093D4
:100290009000D9CF209190002F7DF9CF2091900030
:1002A000277FF5CF2091C0002F772093C000CBCFC0
:1002B0002091C0002F7DF9CF2091C200277F20938D
:1002C000C200C1CF3E2BCECFFC0180915E018823BE
:1002D00011F13FB7F89482E08093E9002091F20099
:1002E000822F90E01816190614F481E090E088231C
:1002F00039F0289844E640935D014091F100408335
:10030000222339F02091F200211103C02BE6209323
:10031000E8003FBF08958FEF9FEF08952FB7F8943F
:1003200083E08093E9009091E800892F807295FF27
:1003300004C09091F20080E4891B2FBF0895809142
:10034000550181110DC082E08093510184E08093BA
:100350005201109254011092530181E08093550193
:1003600081E591E00895CF93DF931F92CDB7DEB77B
:100370006983DC01ED91FC910280F381E02D41E085
:1003800050E0BE016F5F7F4F09950F90DF91CF91D5
:10039000089583E08093E9008091F200882319F0AA
:1003A0008AE38093E80008950E948E0190E008950A
:1003B000CF93DF931F92CDB7DEB7FC01848595857F
:1003C00097FD08C02FEF3FEF358724870F90DF910F
:1003D000CF910895CE0101960E946401019719F40E
:1003E000898190E0F3CF8FEF9FEFF0CF0F931F93B2
:1003F000CF93DF931F92CDB7DEB78C01FC018485CC
:10040000958597FF0BC0CE0101960E94640101976C
:1004100071F4898190E0F80195878487F8018485DB
:1004200095850F90DF91CF911F910F9108958FEFD8
:100430009FEFF1CFFC018485958597FD0BC09FB799
:10044000F89482E08093E9008091F2009FBF90E0F1
:10045000019608959FB7F89482E08093E900809117
:10046000F2009FBF90E0089540914B0150914C01E4
:100470002091490130914A0142175307B4F49091F9
:10048000E8009570E1F39091E80092FD19C0809327
:10049000F10080914B0190914C0101968F73992747
:1004A000892B19F48EEF8093E80080914B01909195
:1004B0004C01019690934C0180934B0181E008958B
:1004C00080E00895EF92FF920F931F93CF93DF93F5
:1004D000F82E192FE62E042F81E0860F880F0E9438
:1004E000340283E00E943402CF2DD12FEC0EFD2E7A
:1004F000F11CCE15DF05B9F007FF13C0FE01849192
:100500000E943402182F80E00E9434028123219639
:100510008111EFCFDF91CF911F910F91FF90EF905D
:1005200008958881EDCF81E0F5CFDF92EF92FF92C1
:100530000F931F93CF93DF93D82E8A01EB017B019A
:10054000E40EF51ECE15DF0559F0D7FE12C0FE01F0
:1005500084910E94340221968111F4CF0FEF1FEF96
:10056000C801DF91CF911F910F91FF90EF90DF9025
:1005700008958881EECF0F931F93CF93DF931F923F
:10058000CDB7DEB782E0898342E450E06AEB70E0E9
:1005900080E80E9495020E949F01DC0112960D9155
:1005A0001C910115110589F0D801ED91FC91028093
:1005B000F381E02DBE016F5F7F4FC801099597FD64
:1005C00004C0F80100851185ECCF89810F90DF917F
:1005D000CF911F910F910895615030F02091F1005B
:1005E000FC0120830196F8CF289884E680935D0172
:1005F00008953FB7F8948091450190914601A091EC
:100600004701B091480126B5A89B05C02F3F19F0BE
:100610000196A11DB11D3FBFBA2FA92F982F882782
:10062000BC01CD01620F711D811D911D42E0660F5D
:10063000771F881F991F4A95D1F708958F929F922F
:10064000AF92BF92CF92DF92EF92FF924B015C018B
:100650000E94F9026B017C010E94F9026C197D096C
:100660008E099F09683E734081059105A8F321E03A
:10067000821A9108A108B10888EEC80E83E0D81E3E
:10068000E11CF11C81149104A104B10429F7FF902D
:10069000EF90DF90CF90BF90AF909F908F90089594
:1006A0008F929F92AF92BF92CF92DF92EF92FF9282
:1006B0000F931F93CF93DF936C017B018A0180918D
:1006C0000B01882309F45CC080915E01882309F442
:1006D00057C08091500180FF05C08091E00082608A
:1006E0008093E000E801B12C8AEFA82E93E0892ED8
:1006F0002AE3922E209711F4BB20D9F10E948E019B
:1007000081110AC0AA94AA20D9F161E070E080E0CA
:1007100090E00E941E03EECF8C171D0611F00CF026
:100720008C2F9FB7F8948092E9002091E80025FD76
:1007300002C09FBFDFCF282F30E0C21BD30BF701D1
:10074000815020F041914093F100FACFE20EF31E68
:10075000BB2021F09092E800B12CEBCF8091E80013
:1007600085FDE7CF9092E800BB24B394209709F36E
:10077000F3CF5D9884E680934F01101611063CF08C
:1007800081E090E0F6019383828310E000E0C801ED
:10079000DF91CF911F910F91FF90EF90DF90CF905D
:1007A000BF90AF909F908F900895AF92BF92CF92DD
:1007B000DF92EF92FF920F931F93CF93DF936C0121
:1007C0007B018B01040F151FEB015E01AE18BF0802
:1007D000C017D10759F06991D601ED91FC910190B4
:1007E000F081E02DC6010995892B79F7C501DF91CC
:1007F000CF911F910F91FF90EF90DF90CF90BF901E
:10080000AF900895FC01538D448D252F30E0842F47
:1008100090E0821B930B541710F0CF960895019728
:100820000895FC01918D828D981761F0A28DAE0F15
:10083000BF2FB11D5D968C91928D9F5F9F73928F9C
:1008400090E008958FEF9FEF0895FC01918D828DC8
:10085000981731F0828DE80FF11D858D90E0089595
:100860008FEF9FEF0895FC01918D228D892F90E0ED
:10087000805C9F4F821B91098F73992708958FEA9F
:1008800091E00E94330421E0892B09F420E0822FBB
:10089000089580E090E0892B29F00E943F048111A7
:1008A0000C9400000895FC01A48DA80FB92FB11D70
:1008B000A35ABF4F2C91848D90E001968F73992796
:1008C000848FA689B7892C93A089B1898C91827471
:1008D0008C93938D848D981306C00288F389E02D44
:1008E00080818F7D80830895EF92FF920F931F93F5
:1008F000CF93DF93EC0181E0888F9B8D8C8D9813D3
:1009000019C0E889F989808185FF14C09FB7F894E0
:10091000EE89FF896083E889F98980818274808308
:100920009FBF81E090E0DF91CF911F910F91FF90E9
:10093000EF900895F62E0B8D10E00F5F1F4F0F7391
:100940001127E02E8C8D8E110CC00FB607FCFACF4C
:10095000E889F989808185FFF5CFCE010E94530493
:10096000F1CFEB8DEC0FFD2FF11DE35AFF4FF0821D
:100970009FB7F8940B8FEA89FB8980818062CFCF83
:10098000CF93DF93EC01888D8823B9F0AA89BB89C6
:10099000E889F9898C9185FD03C0808186FD0DC0B1
:1009A0000FB607FCF7CF8C9185FFF2CF808185FFD2
:1009B000EDCFCE010E945304E9CFDF91CF9108958E
:1009C0001F920F920FB60F9211248F939F938091D5
:1009D000E1009091E100937F9093E10083FF0FC0CD
:1009E0001092E90091E09093EB001092EC0092E3FA
:1009F0009093ED0010925E0198E09093F00082FFDA
:100A000022C093E09093E9009091F200992319F0AD
:100A10009AE39093E80090914F01992341F09091CF
:100A20004F01915090934F01911101C05D9A9091A7
:100A30005D01992341F090915D01915090935D018A
:100A4000911101C0289A84FF18C08091E2008E7E27
:100A500081608093E2008091E1008F7E8093E100CD
:100A6000809150018E7E8061809350019F918F9183
:100A70000F900FBE0F901F90189580FFF7CF8091B9
:100A8000E2008E7E80618093E2008091E1008E7EA4
:100A90008093E100809150018E7E8160E5CF1F92AE
:100AA0000F920FB60F921124CF92DF92EF92FF9226
:100AB0000F931F932F933F934F935F936F937F9366
:100AC0008F939F93AF93BF93EF93FF93CF93DF9356
:100AD000CDB7DEB76C97DEBFCDBF1092E900809135
:100AE000E80083FF25C068E0CE0145960E94EC0235
:100AF00082EF8093E8008D8987FF39C09091E800EC
:100B000090FFFCCF982F907609F034C19E894F89D1
:100B1000588D2F89F88C911131C0803861F5809102
:100B20004E018093F1001092F1008EEF8093E80067
:100B30006C960FB6F894DEBF0FBECDBFDF91CF919C
:100B4000FF91EF91BF91AF919F918F917F916F91A5
:100B50005F914F913F912F911F910F91FF90EF90D7
:100B6000DF90CF900F900FBE0F901F9018959EEFC3
:100B70009093E800C7CF1092F100D5CF913059F48F
:100B80008111D3CF4130510581F680914E018D7F87
:100B900080934E01CACF933049F48111C6CF4130C2
:100BA000510519F680914E018260F2CF953041F4E3
:100BB0008091E80080FFFCCF20682093E300B5CF50
:100BC000963009F0A9C00B8D1C8D22E01092E9002F
:100BD00010924C0110924B01F2122EC010924A0159
:100BE000109249010E94BB021F8299E09983FA8208
:100BF00091E09E8390EA98879AEF998720914B0124
:100C000030914C01275F3F4F3C832B838D831092A3
:100C1000E90010924C0110924B0110934A0100938D
:100C2000490149E050E0BE016F5F7F4F80E00E94C4
:100C300095020E94BB0279CF10934A0100934901AB
:100C40000E949F01DC0112960D911C910115110566
:100C500009F451C1D801ED91FC910480F581E02D9A
:100C6000BE016B5E7F4FC8010995009709F03EC138
:100C7000F80100851185EACFF3E0FF120EC08F89DD
:100C8000882309F440C0823061F440E860E18EE1DD
:100C900091E00E946202811148CF81E28093EB00D3
:100CA00047CF813029F440E86BE082E191E0F1CF59
:100CB000833099F70E949F01DC011296ED90FC9021
:100CC0008E010F5F1F4F6801E114F10479F0D70125
:100CD000ED91FC910680F781E02DB801C7010995DF
:100CE000080F111DF701E084F184EECFD8011C92AA
:100CF000F60101900020E9F73197BF016C197D09D9
:100D000040E0C601C6CF6CEF70E0FB01449150E0BB
:100D100080E80E94950209CF973009F4BECF983041
:100D200021F481E08093F10000CF993009F0FDCEED
:100D3000837009F0B2CFEDE0F1E081E031E096E3BD
:100D40002191222371F08093E9003093EB00DF01C1
:100D500011972C912093EC009093ED008F5F8730DA
:100D600079F78EE78093EA001092EA008F898093EA
:100D70005E01DBCE8B8D9C8D1092E90010924C01B0
:100D800010924B0190934A0180934901898D811102
:100D900092C08E899D89913A49F4813209F07DCFC4
:100DA00047E050E064E071E080E0B3CF913209F0B9
:100DB00074CF833269F48F89988DB0E0A0E080937E
:100DC000000190930101A0930201B0930301ADCE05
:100DD000803269F48091E80082FFFCCF67E084E014
:100DE00091E00E94EC028BEF8093E8009ECE82326D
:100DF00009F09BCE8F8980930B01EEEFFFE7859181
:100E000094918B3F9C4D51F1E0E0F8E0809104011A
:100E100090910501A0910601B0910701803B94409B
:100E2000A105B105F1F480910B0180FD1AC0EE3FE0
:100E30008AE0F80789F587E797E7918380838091B7
:100E4000600080934D0188E19BE00FB6F894A8956F
:100E5000809360000FBE9093600067CEEEEFFAE0E3
:100E6000D5CF808191818737974709F05ECEA895CD
:100E70008091600088618093600080914D01809333
:100E80006000EE3F2AE0F20789F08091FE0A90911F
:100E9000FF0A9183808349CE8081918187379807AB
:100EA00051F29093FF0A8093FE0AC5CF1092FF0A79
:100EB0001092FE0A3ACE0E949F01DC0112960D911B
:100EC0001C910115110509F4E8CED801ED91FC91B2
:100ED0000190F081E02DBE016B5E7F4FC801099546
:100EE000811123CEF80100851185EBCF1816190664
:100EF0000CF41BCED2CEF1E0FF12BECE60E071E06A
:100F000004CF1F920F920FB60F9211242F933F938D
:100F10008F939F93AF93BF93809141019091420132
:100F2000A0914301B09144013091400123E0230F8F
:100F30002D3758F50196A11DB11D209340018093D6
:100F4000410190934201A0934301B09344018091E9
:100F5000450190914601A0914701B0914801019649
:100F6000A11DB11D8093450190934601A0934701B7
:100F7000B0934801BF91AF919F918F913F912F9175
:100F80000F900FBE0F901F90189526E8230F029622
:100F9000A11DB11DD2CF1F920F920FB60F92112437
:100FA0002F933F934F935F936F937F938F939F9371
:100FB000AF93BF93EF93FF938FEA91E00E945304A6
:100FC000FF91EF91BF91AF919F918F917F916F9121
:100FD0005F914F913F912F910F900FBE0F901F90F7
:100FE00018951F920F920FB60F9211242F938F9383
:100FF0009F93EF93FF93E091BF01F091C001808137
:10100000E091C501F091C60182FD1BC090818091E5
:10101000C8018F5F8F732091C901821741F0E09161
:10102000C801F0E0E155FE4F958F8093C801FF9114
:10103000EF919F918F912F910F900FBE0F901F9066
:1010400018958081F4CFEFE5F1E01382128288EEEB
:1010500093E0A0E0B0E084839583A683B78327E183
:1010600031E0318320832FEF3FEF35872487EFEA8C
:10107000F1E01382128284839583A683B78389E289
:1010800091E0918380838DEC90E0958784878CEC50
:1010900090E09787868788EC90E0918B808B89EC35
:1010A00090E0938B828B8AEC90E0958B848B8EEC16
:1010B00090E0978B868B118E128E138E148E08956E
:1010C000789484B5826084BD84B5816084BD85B523
:1010D000826085BD85B5816085BD80916E0081602F
:1010E00080936E00109281008091810082608093D5
:1010F00081008091810081608093810080918000D7
:101100008160809380008091910082608093910043
:101110008091910081608093910080919000816026
:10112000809390008091C10084608093C100809181
:10113000C10082608093C1008091C1008160809372
:10114000C1008091C30081608093C3008091C00082
:1011500082608093C0008091C20081608093C20051
:1011600080917A00846080937A0080917A00826016
:1011700080937A0080917A00816080937A008091D8
:101180007A00806880937A0010925E0110924E017E
:10119000109250018091D70081608093D70080EA3F
:1011A0008093D80089B5806189BD89B5826089BD89
:1011B00009B400FEFDCF61E070E080E090E00E94A5
:1011C0001E038091D8008F7C80618093D80080912D
:1011D000E000807F8093E0008091E1008E7E80932C
:1011E000E1008DE08093E200559A209AEDE6F1E06F
:1011F0002491EEE4F1E08491882399F090E0880F47
:10120000991FFC01E455FF4FA591B491FC01E15DEC
:10121000FE4F859194918FB7F894EC91E22BEC936B
:101220008FBFE091BF01F091C00182E08083E09127
:10123000BB01F091BC011082E091BD01F091BE01B3
:101240008FEC80831092C701E091C301F091C4013B
:1012500086E08083E091C101F091C20180818061CC
:101260008083E091C101F091C20180818860808318
:10127000E091C101F091C201808180688083E0919A
:10128000C101F091C20180818F7D8083C0E0D0E0F8
:1012900080E00E94F80044E050E067E371E08FEAEC
:1012A00091E00E94D50342E050E06CE371E08FEAE8
:1012B00091E00E94D50368EC70E080E090E00E942D
:1012C0001E0381E00E94F80068EC70E080E090E08E
:1012D0000E941E032097E1F20E943F048823C1F27E
:1012E0000E940000D5CFEE0FFF1F0590F491E02D76
:0612F0000994F894FFCF01
:1012F600FFFFFFFF00E100000000000000C1808149
:1013060000000000000000B3015003D401C9011A17
:1013160002D801F601000000007404D5030204C0DF
:10132600043304110425047469636B000D0A00007C
:00000001FF
