:100000000C9462000C948A000C948A000C948A0070
:100010000C948A000C948A000C948A000C948A0038
:100020000C948A000C948A000C948A000C948A0028
:100030000C948A000C948A000C948A000C948A0018
:100040000C9453020C948A000C94C3020C949D02ED
:100050000C948A000C948A000C948A000C948A00F8
:100060000C948A000C948A000000000024002700F1
:100070002A000000000023002600290000000000E4
:10008000250028002B0004040404040404040202D4
:100090000202020203030303030301020408102007
:1000A0004080010204081020010204081020000012
:1000B0000008000201000003040700000000000027
:1000C0000000760411241FBECFEFD8E0DEBFCDBF05
:1000D00011E0A0E0B1E0EAE9F9E002C005900D927C
:1000E000AA31B107D9F721E0AAE1B1E001C01D9220
:1000F000A43CB207E1F710E0C2E6D0E004C02197CB
:10010000FE010E94C504C136D107C9F70E943A0317
:100110000C94CB040C940000E5EBF0E02491E1EAB0
:10012000F0E09491EDE8F0E0E491EE23C9F02223B1
:1001300039F0233001F1A8F4213019F1223029F1EE
:10014000F0E0EE0FFF1FE458FF4FA591B4912FB7D9
:10015000F894EC91811126C090959E239C932FBF1B
:1001600008952730A9F02830C9F0243049F72091AC
:1001700080002F7D03C0209180002F772093800086
:10018000DFCF24B52F7724BDDBCF24B52F7DFBCF68
:100190002091B0002F772093B000D2CF2091B000F3
:1001A0002F7DF9CF9E2BDACFAF92BF92CF92DF9205
:1001B000EF92FF920F931F93CF93DF936C017B011C
:1001C0008B01040F151FEB015E01AE18BF08C017AD
:1001D000D10759F06991D601ED91FC910190F08120
:1001E000E02DC6010995892B79F7C501DF91CF91E3
:1001F0001F910F91FF90EF90DF90CF90BF90AF9045
:100200000895FC01538D448D252F30E0842F90E01C
:10021000821B930B541710F0CF9608950197089501
:10022000FC01918D828D981761F0A28DAE0FBF2FCA
:10023000B11D5D968C91928D9F5F9F73928F90E020
:1002400008958FEF9FEF0895FC01918D828D98178F
:1002500031F0828DE80FF11D858D90E008958FEFCC
:100260009FEF0895FC01918D228D892F90E0805C95
:100270009F4F821B91098F739927089587E291E020
:100280000E94320121E0892B09F420E0822F089599
:1002900080E090E0892B29F00E943E0181110C94AE
:1002A00000000895FC01A48DA80FB92FB11DA35A19
:1002B000BF4F2C91848D90E001968F739927848F86
:1002C000A689B7892C93A089B1898C9183708064A9
:1002D0008C93938D848D981306C00288F389E02D4A
:1002E00080818F7D80830895EF92FF920F931F93FB
:1002F000CF93DF93EC0181E0888F9B8D8C8D9813D9
:100300001AC0E889F989808185FF15C09FB7F894E4
:10031000EE89FF896083E889F98980818370806430
:1003200080839FBF81E090E0DF91CF911F910F917B
:10033000FF90EF900895F62E0B8D10E00F5F1F4F8A
:100340000F731127E02E8C8D8E110CC00FB607FC99
:10035000FACFE889F989808185FFF5CFCE010E9427
:100360005201F1CFEB8DEC0FFD2FF11DE35AFF4F42
:10037000F0829FB7F8940B8FEA89FB8980818062B5
:10038000CFCFCF93DF93EC01888D8823B9F0AA8972
:10039000BB89E889F9898C9185FD03C0808186FD40
:1003A0000DC00FB607FCF7CF8C9185FFF2CF80818F
:1003B00085FFEDCFCE010E945201E9CFDF91CF91B1
:1003C0000895FC0101900020E9F73197AF01481B27
:1003D000590BBC0187E291E00C94D4008F929F925C
:1003E000AF92BF920F931F93CF93DF93CDB7DEB73A
:1003F000A1970FB6F894DEBF0FBECDBF19A2423051
:1004000008F44AE08E010F5D1F4F842E912CB12C11
:10041000A12CA50194010E94A304E62FB901CA01F1
:10042000EA30F4F4E05DD801EE938D01232B242B08
:10043000252B79F790E080E0109719F0CD010E940C
:10044000E101A1960FB6F894DEBF0FBECDBFDF91DC
:10045000CF911F910F91BF90AF909F908F90089573
:10046000E95CE1CFCF92DF92EF92FF92CF93DF93DF
:100470006B017C016DE287E291E00E947401EC0166
:1004800066277727CB016C197D098E099F094AE001
:100490000E94EE018C0F9D1FDF91CF91FF90EF9096
:1004A000DF90CF9008951F920F920FB60F921124F4
:1004B0002F933F938F939F93AF93BF93809123018B
:1004C00090912401A0912501B09126013091220143
:1004D00023E0230F2D3758F50196A11DB11D209360
:1004E00022018093230190932401A0932501B093CE
:1004F000260180911E0190911F01A0912001B091D1
:1005000021010196A11DB11D80931E0190931F0131
:10051000A0932001B0932101BF91AF919F918F9142
:100520003F912F910F900FBE0F901F90189526E8C6
:10053000230F0296A11DB11DD2CF1F920F920FB6AD
:100540000F9211242F933F934F935F936F937F9359
:100550008F939F93AF93BF93EF93FF9387E291E0C5
:100560000E945201FF91EF91BF91AF919F918F91A6
:100570007F916F915F914F913F912F910F900FBE9F
:100580000F901F9018951F920F920FB60F92112483
:100590002F938F939F93EF93FF93E0913701F09107
:1005A00038018081E0913D01F0913E0182FD1BC048
:1005B0009081809140018F5F8F732091410182175C
:1005C00041F0E0914001F0E0E95DFE4F958F8093AE
:1005D0004001FF91EF919F918F912F910F900FBE4E
:1005E0000F901F9018958081F4CFCF92DF92EF92F9
:1005F000FF920F931F93E82FF92F05C001501109A7
:100600002109310961F1908196239417B9F305C04E
:10061000015011092109310911F190819623941398
:10062000F7CFC12CD12CE12CF12C0AC08FEFC81AC6
:10063000D80AE80AF80A0C151D052E053F0579F0C1
:1006400080818623841791F36C2D7D2D8E2D9F2D17
:100650001F910F91FF90EF90DF90CF90089560E091
:1006600070E080E090E01F910F91FF90EF90DF909D
:10067000CF900895789484B5826084BD84B58160FC
:1006800084BD85B5826085BD85B5816085BD80915D
:100690006E00816080936E001092810080918100D5
:1006A00082608093810080918100816080938100CD
:1006B000809180008160809380008091B10084608F
:1006C0008093B1008091B00081608093B0008091F0
:1006D0007A00846080937A0080917A0082608093AF
:1006E0007A0080917A00816080937A0080917A000C
:1006F000806880937A001092C100E0913701F091F8
:10070000380182E08083E0913301F091340110825E
:10071000E0913501F091360180E1808310923F0134
:10072000E0913B01F0913C0186E08083E09139014A
:10073000F0913A01808180618083E0913901F091EC
:100740003A01808188608083E0913901F0913A011B
:10075000808180688083E0913901F0913A01808145
:100760008F7D8083E1EAF0E02491EDE8F0E0849170
:10077000882399F090E0880F991FFC01E859FF4FFA
:10078000A591B491FC01E458FF4F859194918FB7E6
:10079000F894EC91E22BEC938FBFC2EAD0E0FE011B
:1007A00024915EE8E52E50E0F52EF7018491882330
:1007B000C9F090E0880F991FFC01E859FF4FA591FF
:1007C000B491FC01E458FF4F459154913FB7F89420
:1007D0009C91822F809598239C93FA019081892384
:1007E00080833FBF82E191E00E94E10187E191E0D7
:1007F0000E94E10193E0A92EB12C23E2822E912CDC
:1008000030E0C32E30E0D32E2FB7F894809123012F
:1008100090912401A0912501B09126012FBF409114
:100820001A0150911B0160911C0170911D018C01F6
:100830009D01041B150B260B370BB901A80177FD91
:1008400043C0CC96A11DB11D80931A0190931B014A
:10085000A0931C01B0931D0180E00E948C00C50193
:100860000197F1F781E00E948C00C4010197F1F734
:1008700080E00E948C00FE016491F7018491E82FD2
:10088000F0E0EE0FFF1FEE58FF4F8591949100E3CB
:1008900015E720E030E0462F0E94F5026115710552
:1008A00081059105E9F06F5F7F4F8F4F9F4F9F70DC
:1008B000611571058105910599F04AE00E94EE01EC
:1008C00087E191E00E94E101C114D10409F49CCFB9
:1008D0000E943E01882309F497CF0E94000094CF24
:1008E0006FEF7FEFCB010E943202EACFE7E2F1E047
:1008F0001382128288EE93E0A0E0B0E084839583B7
:10090000A683B78384E091E09183808385EC90E0B7
:100910009587848784EC90E09787868780EC90E0C9
:10092000918B808B81EC90E0938B828B82EC90E0BA
:10093000958B848B86EC90E0978B868B118E128E34
:10094000138E148E0895A1E21A2EAA1BBB1BFD0163
:100950000DC0AA1FBB1FEE1FFF1FA217B307E4079E
:10096000F50720F0A21BB30BE40BF50B661F771FF6
:10097000881F991F1A9469F76095709580959095D6
:100980009B01AC01BD01CF010895EE0FFF1F059043
:0A099000F491E02D0994F894FFCFD4
:10099A00000000007401D4000101C10132011001FC
:0A09AA002401626F6F74000D0A0053
:00000001FF
