:100000000C9462000C948A000C948A000C948A0070
:100010000C948A000C948A000C948A000C948A0038
:100020000C948A000C948A000C948A000C94D903D6
:100030000C948A000C948A000C948A000C948A0018
:100040000C9437030C948A000C94A7030C9481033E
:100050000C948A000C948A000C948A000C948A00F8
:100060000C948A000C948A000000000023002600F3
:10007000290000000000240027002A0000000000E2
:10008000250028002B0004040404040404040202D4
:100090000202020203030303030301020408102007
:1000A0004080010204081020010204081020000012
:1000B0000008000201000003040700000000000027
:1000C0000000DA0411241FBECFEFD8E0DEBFCDBFA1
:1000D00011E0A0E0B1E0E6ECF5E102C005900D9280
:1000E000AC32B107D9F722E0ACE2B1E001C01D9219
:1000F000A330B207E1F710E0C2E6D0E004C02197D8
:10010000FE010E94DB0AC136D107C9F70E943705FC
:100110000C94E10A0C940000CF92DF92EF92FF92D0
:10012000DC01A03282E0B807D4F5A53BB10514F09C
:10013000A4EBB0E04091010228E830E0241B310933
:1001400047FD3395220F331F220F331F6901330FF1
:10015000EE08FF084091020228E532E0241B310935
:1001600047FD3395220F331F220F331F032E000C40
:10017000440B550B2C193D094E095F09B7FF02C00E
:10018000B0E0A0E00E942B0824EB30E040E050E01B
:100190000E940108C20ED31EE41EF51ED601E09196
:1001A0000002EC3080F52091010288E890E0821B8B
:1001B000910927FD9395880F991F880F991FA817FC
:1001C000B90784F02091020288E592E0821B910930
:1001D00027FD9395880F991F880F991FA817B907B6
:1001E0000CF4CD010297880F991F4FB7F8942E2F6A
:1001F00030E0F901EE0FFF1FE20FF31FE552FE4F53
:10020000928381834FBFFF90EF90DF90CF9008954E
:1002100090E0FC01E255FF4F2491FC01E656FF4FB0
:100220003491FC01EA57FF4FE491EE23C9F02223F9
:1002300039F0233001F1A8F4213019F1223029F1ED
:10024000F0E0EE0FFF1FE458FF4FA591B4918FB778
:10025000F894EC91611126C030953E233C938FBFFA
:1002600008952730A9F02830C9F0243049F780914B
:1002700080008F7D03C0809180008F778093800005
:10028000DFCF84B58F7784BDDBCF84B58F7DFBCF87
:100290008091B0008F778093B000D2CF8091B00072
:1002A0008F7DF9CF3E2BDACFCF93DF9390E0FC0127
:1002B000E656FF4F24918A579F4FFC018491882373
:1002C000D1F090E0880F991FFC01EE58FF4FA591E7
:1002D000B491FC01E458FF4FC591D49161110EC057
:1002E0009FB7F8948C91E22FE0958E238C93288110
:1002F000E223E8839FBFDF91CF9108958FB7F894F1
:10030000EC91E22BEC938FBFF6CF3FB7F89480913E
:100310003A0190913B01A0913C01B0913D0126B57D
:10032000A89B05C02F3F19F00196A11DB11D3FBF2D
:10033000BA2FA92F982F8827BC01CD01620F711DFC
:10034000811D911D42E0660F771F881F991F4A95F6
:10035000D1F70895AF92BF92CF92DF92EF92FF92C2
:100360000F931F93CF93DF936C017B018B01040FDD
:10037000151FEB015E01AE18BF08C017D10759F079
:100380006991D601ED91FC910190F081E02DC601BB
:100390000995892B79F7C501DF91CF911F910F91B5
:1003A000FF90EF90DF90CF90BF90AF900895FC0149
:1003B000538D448D252F30E0842F90E0821B930BCA
:1003C000541710F0CF96089501970895FC01918D70
:1003D000828D981761F0A28DAE0FBF2FB11D5D9673
:1003E0008C91928D9F5F9F73928F90E008958FEF15
:1003F0009FEF0895FC01918D828D981731F0828DC9
:10040000E80FF11D858D90E008958FEF9FEF08951F
:10041000FC01918D228D892F90E0805C9F4F821B83
:1004200091098F73992708958EE391E00E94080245
:1004300021E0892B09F420E0822F089580E090E0EC
:10044000892B29F00E94140281110C940000089558
:10045000FC01A48DA80FB92FB11DA35ABF4F2C9139
:10046000848D90E001968F739927848FA689B78930
:100470002C93A089B1898C91837080648C93938D27
:10048000848D981306C00288F389E02D80818F7DCA
:1004900080830895EF92FF920F931F93CF93DF9382
:1004A000EC0181E0888F9B8D8C8D98131AC0E889B0
:1004B000F989808185FF15C09FB7F894EE89FF897F
:1004C0006083E889F98980818370806480839FBF1D
:1004D00081E090E0DF91CF911F910F91FF90EF901D
:1004E0000895F62E0B8D10E00F5F1F4F0F7311272D
:1004F000E02E8C8D8E110CC00FB607FCFACFE88968
:10050000F989808185FFF5CFCE010E942802F1CFC5
:10051000EB8DEC0FFD2FF11DE35AFF4FF0829FB7DB
:10052000F8940B8FEA89FB8980818062CFCF682F96
:100530008EE391E00C944A02CF93DF93EC01888D17
:100540008823B9F0AA89BB89E889F9898C9185FD4E
:1005500003C0808186FD0DC00FB607FCF7CF8C91DC
:1005600085FFF2CF808185FFEDCFCE010E9428026A
:10057000E9CFDF91CF910895FC0101900020E9F7C8
:100580003197AF01481B590BBC018EE391E00C94ED
:10059000AA018F929F92AF92BF920F931F93CF9316
:1005A000DF93CDB7DEB7A1970FB6F894DEBF0FBECD
:1005B000CDBF19A2423008F44AE08E010F5D1F4FF3
:1005C000842E912CB12CA12CA50194010E943308FA
:1005D000E62FB901CA01EA30F4F4E05DD801EE93E8
:1005E0008D01232B242B252B79F790E080E01097A9
:1005F00019F0CD010E94BC02A1960FB6F894DEBF9F
:100600000FBECDBFDF91CF911F910F91BF90AF90E3
:100610009F908F900895E95CE1CFCF92DF92EF92A7
:10062000FF92CF93DF9397FF19C06B017C018DE29E
:100630000E949702EC0166277727CB016C197D0990
:100640008E099F094AE00E94C9028C0F9D1FDF910D
:10065000CF91FF90EF90DF90CF9008954AE0DF9127
:10066000CF91FF90EF90DF90CF900C94C9021F9232
:100670000F920FB60F9211242F933F938F939F9356
:10068000AF93BF938091360190913701A0913801CB
:10069000B09139013091350123E0230F2D3758F502
:1006A0000196A11DB11D20933501809336019093D1
:1006B0003701A0933801B093390180913A019091AC
:1006C0003B01A0913C01B0913D010196A11DB11DDE
:1006D00080933A0190933B01A0933C01B0933D017C
:1006E000BF91AF919F918F913F912F910F900FBE2E
:1006F0000F901F90189526E8230F0296A11DB11D9B
:10070000D2CF1F920F920FB60F9211242F933F93C7
:100710004F935F936F937F938F939F93AF93BF9309
:10072000EF93FF938EE391E00E942802FF91EF91F7
:10073000BF91AF919F918F917F916F915F914F91F9
:100740003F912F910F900FBE0F901F9018951F9201
:100750000F920FB60F9211242F938F939F93EF93C5
:10076000FF93E0914E01F0914F018081E09154019F
:10077000F091550182FD1BC09081809157018F5FE0
:100780008F7320915801821741F0E0915701F0E0FA
:10079000E25CFE4F958F80935701FF91EF919F91FF
:1007A0008F912F910F900FBE0F901F901895808101
:1007B000F4CF1F920F920FB60F9211242F933F93F5
:1007C0004F935F936F937F938F939F93AF93BF9359
:1007D000CF93DF93EF93FF9380912C01C091FF01A2
:1007E000D0E087FF24C01092850010928400809191
:1007F0002C018F5F80932C0180912C01082E000C1E
:10080000990B8C179D0724F480912C018C30C4F136
:100810008091840090918500049680349C4908F46E
:100820007AC08091840090918500049676C0809172
:100830002C01082E000C990B8C179D07C4F6E09133
:100840002C018E2FEE0F990BFC01EE0FFF1FE80F0E
:10085000F91FE552FE4F808186FFC9CFE0912C0140
:100860008E2FEE0F990BFC01EE0FFF1FE80FF91F03
:10087000E552FE4F808160E08F730E940801B7CF80
:100880002091840030918500E0912C018E2FEE0F95
:10089000990BFC01EE0FFF1FE80FF91FE552FE4F09
:1008A00081819281820F931F9093890080938800A9
:1008B000E0912C018E2FEE0F990BFC01EE0FFF1F24
:1008C000E80FF91FE552FE4F808186FF11C0E091CD
:1008D0002C018E2FEE0F990BFC01EE0FFF1FE80F7E
:1008E000F91FE552FE4F808161E08F730E9408017D
:1008F000FF91EF91DF91CF91BF91AF919F918F9138
:100900007F916F915F914F913F912F910F900FBE0B
:100910000F901F90189580E49CE990938900809334
:1009200088008FEF80932C01E3CFCF92DF92EF927C
:10093000FF920F931F93E82FF92F05C00150110963
:100940002109310961F1908196239417B9F305C00B
:10095000015011092109310911F190819623941355
:10096000F7CFC12CD12CE12CF12C0AC08FEFC81A83
:10097000D80AE80AF80A0C151D052E053F0579F07E
:1009800080818623841791F36C2D7D2D8E2D9F2DD4
:100990001F910F91FF90EF90DF90CF90089560E04E
:1009A00070E080E090E01F910F91FF90EF90DF905A
:1009B000CF900895109241011092400188EE93E08B
:1009C000A0E0B0E08093420190934301A0934401E2
:1009D000B093450184E091E090933F0180933E0104
:1009E00085EC90E090934B0180934A0184EC90E079
:1009F00090934D0180934C0180EC90E090934F01D7
:100A000080934E0181EC90E09093510180935001CE
:100A100082EC90E0909353018093520186EC90E039
:100A200090935501809354011092570110925801F0
:100A30001092590110925A018091FF018C3098F464
:100A400091E0980F9093FF018093000290E0FC01E9
:100A5000EE0FFF1FE80FF91FE552FE4F88EB9BE0FA
:100A60009283818308958FEF809300020895789494
:100A700084B5826084BD84B5816084BD85B58260A3
:100A800085BD85B5816085BD80916E008160809354
:100A90006E001092810080918100826080938100BD
:100AA00080918100816080938100809180008160CD
:100AB000809380008091B10084608093B100809128
:100AC000B00081608093B00080917A008460809350
:100AD0007A0080917A00826080937A0080917A0017
:100AE000816080937A0080917A00806880937A0098
:100AF0001092C100E0914E01F0914F0182E080839D
:100B0000E0914A01F0914B011082E0914C01F0918B
:100B10004D0180E1808310925601E0915201F091E5
:100B2000530186E08083E0915001F0915101808172
:100B300080618083E0915001F09151018081886053
:100B40008083E0915001F091510180818068808321
:100B5000E0915001F091510180818F7D808361E0AF
:100B60008DE00E94540161E087E00E94540160E042
:100B700088E00E945401809100028C3008F051C03E
:100B800061E089E00E94540180910002282F30E04A
:100B9000F901EE0FFF1FE20FF31FE552FE4F9081A8
:100BA000907C9960908310920102109202022CE0D6
:100BB000622F0E94A70A829FB001112430E020E03A
:100BC000AB01420F531FFA01EE0FFF1FE40FF51F99
:100BD000E552FE4F908196FD16C02F5F3F4F2C309F
:100BE000310571F781110FC01092800082E080936F
:100BF00081001092850010928400B19A80916F005C
:100C0000826080936F00E09100028E2F90E0FC01E3
:100C1000EE0FFF1FE80FF91FE552FE4F8081806441
:100C2000808380912F01909130010E948C0082E19D
:100C300091E00E94BC0287E191E00E94BC0242E682
:100C4000442E512C612C712CCAE0D0E030E0232ED0
:100C500030E0332E2FB7F894809136019091370110
:100C6000A0913801B09139012FBF409131015091CD
:100C7000320160913301709134018C019D01041B9C
:100C8000150B260B370BB901A80177FDAEC1CC9629
:100C9000A11DB11D8093310190933201A0933301C6
:100CA000B093340160E087E00E94080183E090E0A7
:100CB0000197F1F761E087E00E94080183E290E08C
:100CC0000197F1F760E087E00E940801E2EAF0E0B6
:100CD0006491EEE8F0E08491E82FF0E0EE0FFF1F62
:100CE000E859FF4F8591949100E315E720E030E04B
:100CF000462F0E9495044B015C0181149104A104CC
:100D0000B10439F0FFEF8F1A9F0AAF0ABF0A0FE054
:100D1000B02281149104A104B10409F435C1C501C4
:100D2000B4010E94800920E030E048E652E40E94CD
:100D3000D6086B017C010E94480965367105810562
:100D4000910524F064E670E080E090E09B01AC0146
:100D5000223031054105510524F422E030E040E025
:100D600050E02250310941095109A4EBB0E00E9442
:100D70002008A30192010E940108309330012093C2
:100D80002F0120E030E040E751E4C701B6010E94A6
:100D9000D108682F661F6627661F8DE00E94080134
:100DA000C501B4010E940D038CE20E949702A701C5
:100DB0009601C701B6010E94A20A882309F456C011
:100DC0008AE191E00E94BC028CE20E94970260914D
:100DD0002F0170913001072E000C880B990B0E9497
:100DE0000D0387E191E00E94BC0280912F01909158
:100DF00030010E948C0080912D0190912E0101966E
:100E000090932E0180932D01BE010E94B30A892B7D
:100E100009F0EBC086E291E00E94BC028EE4809370
:100E20007C000E9485016B017C0192E0892E912C4F
:100E3000A12CB12C0E9485016C197D098E099F0996
:100E4000683E734081059105A8F318EEC10E13E0CA
:100E5000D11EE11CF11C8A9489288A288B2809F468
:100E6000A5C0812C912C54018394E4CF46015701F5
:100E7000E894B7F82FEF3FEF4FE75FE7C501B40104
:100E80000E94A20A81110DC02FEF3FEF4FE75FE7ED
:100E9000C501B4010E94D10818161CF48EE191E03E
:100EA00091CF2FEF3FEF4FE75FE4C701B6010E94FC
:100EB000300A18161CF482E291E084CF2FEF3FEF46
:100EC0004FE75FECC701B6010E94D10887FDF3CF61
:100ED00020E030E0A901C701B6010E94D10887FFD8
:100EE00007C08DE20E949702F7FAF094F7F8F094A9
:100EF0002AE037ED43EA5BE3C701B6010E946508CB
:100F00004B015C010E944F096B017C010E947E092C
:100F10009B01AC01C501B4010E9464084B015C0156
:100F20004AE0C701B6010E94C9028EE20E94970200
:100F300020E030E040E251E4C501B4010E94350AEE
:100F40004B015C010E944F096B01F12CE12C4AE03E
:100F5000C701B6010E94C902C701B6010E947E09FD
:100F60009B01AC01C501B4010E94640820E030E09F
:100F700040E251E40E94350A0E944F0990E080E06F
:100F80004AE00E94C90220CF60E08DE00E94080183
:100F900060E070E0CB010E940D038CE20E9497029A
:100FA0006FEF7FEFCB010E940D030ECF80917A008F
:100FB000806480937A0080917A0086FDFCCF209136
:100FC00078008091790030E050E040E0382B64EB0D
:100FD0007BE281E190E00E940108CA01B9010E9410
:100FE0000D0387E191E00E94BC022114310409F451
:100FF00031CE0E941402882309F426CE0E940000FC
:1010000023CE052E97FB1EF400940E94180857FD6E
:1010100007D00E94330807FC03D04EF40C94180844
:1010200050954095309521953F4F4F4F5F4F089514
:1010300090958095709561957F4F8F4F9F4F089544
:101040000E945508A59F900DB49F900DA49F800D00
:10105000911D11240895B7FF0C9420080E942008C8
:10106000821B930B0895A1E21A2EAA1BBB1BFD0144
:101070000DC0AA1FBB1FEE1FFF1FA217B307E40777
:10108000F50720F0A21BB30BE40BF50B661F771FCF
:10109000881F991F1A9469F76095709580959095AF
:1010A0009B01AC01BD01CF010895A29FB001B39F88
:1010B000C001A39F700D811D1124911DB29F700D61
:1010C000811D1124911D08955058BB27AA270E9405
:1010D0007C080C94F6090E94E80938F00E94EF0998
:1010E00020F039F49F3F19F426F40C94E5090EF42E
:1010F000E095E7FB0C94DF09E92F0E94070A58F3FB
:10110000BA17620773078407950720F079F4A6F5EC
:101110000C94290A0EF4E0950B2EBA2FA02D0B018A
:10112000B90190010C01CA01A0011124FF27591B2C
:1011300099F0593F50F4503E68F11A16F040A22F32
:10114000232F342F4427585FF3CF469537952795A3
:10115000A795F0405395C9F77EF41F16BA0B620BA2
:10116000730B840BBAF09150A1F0FF0FBB1F661FE9
:10117000771F881FC2F70EC0BA0F621F731F841F2C
:1011800048F4879577956795B795F7959E3F08F052
:10119000B0CF9395880F08F09927EE0F9795879514
:1011A00008950E94BB0908F481E008950E94EA08AE
:1011B0000C94F6090E94EF0958F00E94E80940F0EB
:1011C00029F45F3F29F00C94DF0951110C942A0A8D
:1011D0000C94E5090E94070A68F39923B1F355239B
:1011E00091F3951B550BBB27AA276217730784073A
:1011F00038F09F5F5F4F220F331F441FAA1FA9F3D0
:1012000035D00E2E3AF0E0E832D091505040E695BD
:10121000001CCAF72BD0FE2F29D0660F771F881F1E
:10122000BB1F261737074807AB07B0E809F0BB0B11
:10123000802DBF01FF2793585F4F3AF09E3F510525
:1012400078F00C94DF090C942A0A5F3FE4F3983E8F
:10125000D4F3869577956795B795F7959F5FC9F70E
:10126000880F911D9695879597F90895E1E0660F8F
:10127000771F881FBB1F621773078407BA0720F008
:10128000621B730B840BBA0BEE1F88F7E095089571
:101290000E944F096894B1110C942A0A08950E9483
:1012A0000F0A88F09F5798F0B92F9927B751B0F0DF
:1012B000E1F0660F771F881F991F1AF0BA95C9F7DA
:1012C00014C0B13091F00E94290AB1E008950C9445
:1012D000290A672F782F8827B85F39F0B93FCCF3F8
:1012E000869577956795B395D9F73EF49095809557
:1012F000709561957F4F8F4F9F4F0895E89409C077
:1013000097FB3EF490958095709561957F4F8F4F38
:101310009F4F9923A9F0F92F96E9BB279395F6954E
:10132000879577956795B795F111F8CFFAF4BB0FCC
:1013300011F460FF1BC06F5F7F4F8F4F9F4F16C030
:10134000882311F096E911C0772321F09EE8872FBA
:10135000762F05C0662371F096E8862F70E060E076
:101360002AF09A95660F771F881FDAF7880F9695EF
:10137000879597F90895990F0008550FAA0BE0E893
:10138000FEEF16161706E807F907C0F01216130647
:10139000E407F50798F0621B730B840B950B39F487
:1013A0000A2661F0232B242B252B21F408950A26ED
:1013B00009F4A140A6958FEF811D811D089597F92D
:1013C0009F6780E870E060E008959FEF80EC0895EB
:1013D00000240A9416161706180609060895002414
:1013E0000A9412161306140605060895092E03948E
:1013F000000C11F4882352F0BB0F40F4BF2B11F402
:1014000060FF04C06F5F7F4F8F4F9F4F089557FD60
:101410009058440F551F59F05F3F71F04795880F62
:1014200097FB991F61F09F3F79F0879508951216F9
:1014300013061406551FF2CF4695F1DF08C01616A5
:1014400017061806991FF1CF869571056105089456
:101450000895E894BB2766277727CB0197F908956D
:101460000E94BB0908F48FEF08950E94480A0C946B
:10147000F6090E94E80938F00E94EF0920F0952350
:1014800011F00C94DF090C94E50911240C942A0A3C
:101490000E94070A70F3959FC1F3950F50E0551F06
:1014A000629FF001729FBB27F00DB11D639FAA27B9
:1014B000F00DB11DAA1F649F6627B00DA11D661F08
:1014C000829F2227B00DA11D621F739FB00DA11D29
:1014D000621F839FA00D611D221F749F3327A00DE3
:1014E000611D231F849F600D211D822F762F6A2F7F
:1014F00011249F5750409AF0F1F088234AF0EE0FE4
:10150000FF1FBB1F661F771F881F91505040A9F710
:101510009E3F510580F00C94DF090C942A0A5F3F2E
:10152000E4F3983ED4F3869577956795B795F7954C
:10153000E7959F5FC1F7FE2B880F911D96958795C4
:1015400097F908950E94BB09880B990B0895991B80
:1015500079E004C0991F961708F0961B881F7A95AA
:10156000C9F78095089597FB072E16F4009407D0CD
:1015700077FD09D00E94C70A07FC05D03EF490957C
:1015800081959F4F0895709561957F4F0895AA1B8F
:10159000BB1B51E107C0AA1FBB1FA617B70710F05E
:1015A000A61BB70B881F991F5A95A9F78095909590
:1015B000BC01CD010895EE0FFF1F0590F491E02DC1
:0615C0000994F894FFCF2E
:1015C600000000004A02AA01D7019C020802E601B7
:1015D600FA01626F6F74000D0A006E616E00696E2B
:0C15E60066006F7666007663632C0000E0
:00000001FF
