:100000000C9462000C948A000C948A000C948A0070
:100010000C948A000C948A000C948A000C948A0038
:100020000C948A000C948A000C948A000C948A0028
:100030000C948A000C948A000C948A000C948A0018
:100040000C9487020C948A000C94F7020C94D10251
:100050000C948A000C948A000C948A000C948A00F8
:100060000C948A000C948A000000000024002700F1
:100070002A0000000000250028002B0000000000DE
:1000800023002600290004040404040404040202DA
:100090000202020203030303030301020408102007
:1000A0004080010204081020010204081020000012
:1000B0000008000201000003040700000000000027
:1000C00000007D0411241FBECFEFD8E0DEBFCDBFFE
:1000D00011E0A0E0B1E0E8EAF9E002C005900D927D
:1000E000A832B107D9F721E0A8E2B1E001C01D9222
:1000F000AE3CB207E1F710E0C2E6D0E004C02197C1
:10010000FE010E94CC04C136D107C9F70E94290321
:100110000C94D2040C940000833081F028F48130D8
:1001200099F08230A9F008958730A9F08830C9F09D
:100130008430B1F4809180008F7D03C08091800075
:100140008F7780938000089584B58F7784BD08955C
:1001500084B58F7DFBCF8091B0008F778093B00006
:1001600008958091B0008F7DF9CFCF93DF93E0EBBE
:10017000F0E08491ECE9F0E0D491E8E8F0E0C4919B
:10018000CC23A1F081110E948C00EC2FF0E0EE0F47
:10019000FF1FE458FF4FA591B491EC91ED2381E04E
:1001A00090E009F480E0DF91CF91089580E090E045
:1001B000FACF1F93CF93DF93E7EBF0E09491E3EA5C
:1001C000F0E0D491EFE8F0E0C491CC23B9F0182F1F
:1001D000992319F0892F0E948C00EC2FF0E0EE0F8C
:1001E000FF1FEE58FF4FA591B4918FB7F894EC9193
:1001F000111108C0D095DE23DC938FBFDF91CF9122
:100200001F910895DE2BF8CF3FB7F89480912D0110
:1002100090912E01A0912F01B091300126B5A89B9D
:1002200005C02F3F19F00196A11DB11D3FBFBA2F88
:10023000A92F982F8827BC01CD01620F711D811D48
:10024000911D42E0660F771F881F991F4A95D1F7CD
:100250000895AF92BF92CF92DF92EF92FF920F93E9
:100260001F93CF93DF936C017B018B01040F151F4C
:10027000EB015E01AE18BF08C017D10759F06991B4
:10028000D601ED91FC910190F081E02DC601099518
:10029000892B79F7C501DF91CF911F910F91FF90C5
:1002A000EF90DF90CF90BF90AF900895FC01538DF9
:1002B000448D252F30E0842F90E0821B930B541740
:1002C00010F0CF96089501970895FC01918D828DCD
:1002D000981761F0A28DAE0FBF2FB11D5D968C9166
:1002E000928D9F5F9F73928F90E008958FEF9FEFA5
:1002F0000895FC01918D828D981731F0828DE80F61
:10030000F11D858D90E008958FEF9FEF0895FC011A
:10031000918D228D892F90E0805C9F4F821B9109E7
:100320008F739927089581E391E00E94870121E06E
:10033000892B09F420E0822F089580E090E0892B3A
:1003400029F00E94930181110C9400000895FC0192
:10035000A48DA80FB92FB11DA35ABF4F2C91848D26
:1003600090E001968F739927848FA689B7892C9383
:10037000A089B1898C91837080648C93938D848DD6
:10038000981306C00288F389E02D80818F7D8083D9
:100390000895EF92FF920F931F93CF93DF93EC0199
:1003A00081E0888F9B8D8C8D98131AC0E889F9891C
:1003B000808185FF15C09FB7F894EE89FF8960831F
:1003C000E889F98980818370806480839FBF81E0A0
:1003D00090E0DF91CF911F910F91FF90EF900895E2
:1003E000F62E0B8D10E00F5F1F4F0F731127E02EBD
:1003F0008C8D8E110CC00FB607FCFACFE889F989F5
:10040000808185FFF5CFCE010E94A701F1CFEB8D52
:10041000EC0FFD2FF11DE35AFF4FF0829FB7F894C8
:100420000B8FEA89FB8980818062CFCFCF93DF93E6
:10043000EC01888D8823B9F0AA89BB89E889F989FC
:100440008C9185FD03C0808186FD0DC00FB607FC31
:10045000F7CF8C9185FFF2CF808185FFEDCFCE0164
:100460000E94A701E9CFDF91CF910895FC0101908F
:100470000020E9F73197AF01481B590BBC0181E31C
:1004800091E00C9429018F929F92AF92BF920F93AB
:100490001F93CF93DF93CDB7DEB7A1970FB6F89434
:1004A000DEBF0FBECDBF19A2423008F44AE08E0174
:1004B0000F5D1F4F842E912CB12CA12CA50194010E
:1004C0000E94AA04E62FB901CA01EA30F4F4E05D03
:1004D000D801EE938D01232B242B252B79F790E067
:1004E00080E0109719F0CD010E943602A1960FB658
:1004F000F894DEBF0FBECDBFDF91CF911F910F915A
:10050000BF90AF909F908F900895E95CE1CF1F92CC
:100510000F920FB60F9211242F933F938F939F93B7
:10052000AF93BF938091290190912A01A0912B0153
:10053000B0912C013091280123E0230F2D3758F57D
:100540000196A11DB11D209328018093290190934C
:100550002A01A0932B01B0932C0180912D01909141
:100560002E01A0912F01B09130010196A11DB11D66
:1005700080932D0190932E01A0932F01B093300111
:10058000BF91AF919F918F913F912F910F900FBE8F
:100590000F901F90189526E8230F0296A11DB11DFC
:1005A000D2CF1F920F920FB60F9211242F933F9329
:1005B0004F935F936F937F938F939F93AF93BF936B
:1005C000EF93FF9381E391E00E94A701FF91EF91E8
:1005D000BF91AF919F918F917F916F915F914F915B
:1005E0003F912F910F900FBE0F901F9018951F9263
:1005F0000F920FB60F9211242F938F939F93EF9327
:10060000FF93E0914101F09142018081E091470127
:10061000F091480182FD1BC0908180914A018F5F5B
:100620008F7320914B01821741F0E0914A01F0E075
:10063000EF5CFE4F958F80934A01FF91EF919F9160
:100640008F912F910F900FBE0F901F901895808162
:10065000F4CF789484B5826084BD84B5816084BD14
:1006600085B5826085BD85B5816085BD80916E0050
:10067000816080936E001092810080918100826081
:1006800080938100809181008160809381008091BE
:1006900080008160809380008091B10084608093AD
:1006A000B1008091B00081608093B00080917A00A9
:1006B000846080937A0080917A00826080937A00CF
:1006C00080917A00816080937A0080917A008068BE
:1006D00080937A001092C100E0914101F0914201B3
:1006E00082E08083E0913D01F0913E011082E09133
:1006F0003F01F091400180E1808310924901E09137
:100700004501F091460186E08083E0914301F0913C
:100710004401808180618083E0914301F091440134
:10072000808188608083E0914301F0914401808161
:1007300080688083E0914301F091440180818F7D46
:100740008083ECE9F0E02491E8E8F0E084918823EC
:10075000C1F090E0880F991FFC01E859FF4FC59147
:10076000D491FC01EE58FF4FA591B4919FB7F89436
:100770008881E22FE0958E2388838C91E823EC9387
:100780009FBFE3EAF0E02491EFE8F0E08491882352
:1007900099F090E0880F991FFC01E859FF4FA5914F
:1007A000B491FC01EE58FF4F859194918FB7F89466
:1007B000EC91E22BEC938FBF80E00E94D9000E9465
:1007C00004014B015C0184E6C82ED12CE12CF12CF4
:1007D0000E940401681979098A099B09683E7340DF
:1007E00081059105A8F321E0C21AD108E108F108BA
:1007F00038EE830E33E0931EA11CB11CC114D1044A
:10080000E104F10429F782E191E00E9436020E949E
:10081000B5006C01990FEE08FF084AE0C701B60168
:10082000F7FE0DC06DE281E391E00E94C9016627E9
:100830007727CB016C197D098E099F094AE00E9438
:10084000430289E191E00E9436020E9404016B019B
:100850007C0181E00E94D9000E94B500892BE1F360
:100860000E9404014B015C018C189D08AE08BF0872
:100870000E9404016C197D098E099F096035734C33
:1008800081059105A8F30E9404016B017C0180E0C1
:100890000E94D9000E94B500892BE1F70E94040153
:1008A0009B01AC012C193D094E095F0969017A01D0
:1008B0008CE191E00E9436024AE0C501B4010E9439
:1008C000430289E191E00E94360282E291E00E94B7
:1008D00036024AE0C701B6010E94430289E191E075
:1008E0000E943602C0E0D0E02097F1F30E9493010D
:1008F0008823D1F30E940000F7CFE1E3F1E01382F7
:10090000128288EE93E0A0E0B0E084839583A68312
:10091000B78384E091E09183808385EC90E09587B4
:10092000848784EC90E09787868780EC90E0918BB9
:10093000808B81EC90E0938B828B82EC90E0958BA6
:10094000848B86EC90E0978B868B118E128E138EA3
:10095000148E0895A1E21A2EAA1BBB1BFD010DC027
:10096000AA1FBB1FEE1FFF1FA217B307E407F5075F
:1009700020F0A21BB30BE40BF50B661F771F881F3B
:10098000991F1A9469F760957095809590959B01D1
:10099000AC01BD01CF010895EE0FFF1F0590F4914A
:0809A000E02D0994F894FFCF4B
:1009A80000000000C90129015601160287016501EE
:1009B800790173746172742C000D0A007269736591
:0809C8002C0066616C6C2C0030
:00000001FF
